:03000000020AF7FA
:0C0AF700787FE4F6D8FD758139020B3ED3
:100E9C00B9E2C7BF004C580041542B435343533D58
:100EAC002247534D220D0A0041542B434D47463DDA
:100EBC00310D0A0041542B434D47533D22313832FA
:0C0ECC003934323738323833220D0A0036
:100B8300AB07AA067C277D10120A7EEF2430F526D8
:100B93007C277D10AF03AE02120A7EAA04AB057C4C
:100BA300037DE8AF03AE02120A7EEF2430F5217C09
:100BB300037DE8AF03AE02120A7EAA04AB057C00F4
:100BC3007D64AF03AE02120A7EEF2430F5227C006F
:100BD3007D64AF03AE02120A7EAA04AB057C007DDE
:100BE3000AAF03AE02120A7EEF2430F5257C007DA6
:0E0BF3000AAF03AE02120A7EED2430F527226F
:10108C00E4FDFCC3ED9FEC9E5015E4FBFA0BBB009A
:0F109C00010AEB64794A70F50DBD00010C80E488
:0110AB002222
:1011D200000000000000000000000000000000000D
:0111E20022EA
:0E11F4007F307E02EF1FAC0670011E4C70F6BD
:0112020022C9
:0F120300D291D2901211D2C2911211D2C2902266
:0C127400C291D2901211D2D2910211D27C
:0E123000A2009291D2901211D2C2900211D25D
:0D125A00D2901211D2A291C2901211D22294
:10112600E4FEEF25E0FF9291D2901211D2C2901206
:0911360011D20EBE08EC02125A9F
:1010CC00E4FFD291FEEF25E0FFD2901211D2A29153
:0D10DC00E4334207C2901211D20EBE08E8A4
:0110E90022E4
:1011C000AD071212037F46121126AF051211260237
:0211D000127497
:101012001212037F47121126E4FD1210CC74282D00
:10102200F8A607BD0304D2008002C2001212300DDE
:09103200BD03E71212740211F46F
:0512B7007F010211C0DF
:100CED007F011211C07F101211C07FB47E0012104F
:100CFD008C121012752300852824E524FE7C00E457
:100D0D002529F524EC3EF523FCAD241209AB7B9A85
:100D1D007A997999783F1209091209E4120B837FA8
:100D2D008012123E7BFF7A0E799C12113F7F851245
:100D3D00123EAF2112124CAF2212124CAF251212DD
:0F0D4D004CAF2712124C7BFF7A0E79A102113F97
:100E15007BFF7A0E79A41211557F037E00120F1401
:100E25007BFF7A0E79B41211557F047E00120F14E0
:100E35007BFF7A0E79C01211557F057E00120F14C3
:100E4500AF211212A9AF221212A9AF251212A9AF12
:040E5500270212A9B5
:0C0FBE00C2A1C2A28F80D2A27F057E00DB
:100FCA00D3EF9400EE940040147D6E7C00ED1D700A
:0D0FDA00011CED4C70F7EF1F70E61E80E368
:010FE70022E7
:0E123E00C2A0120FBEC2A27F057E00020FCA20
:0E124C00D2A0120FBEC2A27F057E00020FCA02
:10113F00120A65FFD39400400C12124C740129F966
:06114F00E43AFA80EB22F5
:1010EA00D2A57F3012123E120FC67F0C12123E1288
:0E10FA000FC67F0112123E7F057E00020FCA54
:0C1280007F0112123E7F057E00020FCAA3
:1011E3001212B71210EA1210AC1211081212218057
:0111F300F803
:03000B00020DBE25
:100DBE00C0E0C0F0C083C082C0D075D000C000C0FB
:100DCE0001C002C003C004C005C006C007758C3C3C
:100DDE00758AB00538E53870020537B4F40EE5377C
:100DEE00B40109753700753800121297D007D00676
:100DFE00D005D004D003D002D001D000D0D0D08204
:070E0E00D083D0F0D0E032E8
:1010AC00758921758DFD758BFDD28EC29FD29ED216
:1010BC009CD2AFD2ACD2A9D28C758C3C758AB022A2
:030023000212B115
:0612B1008599A0C29832ED
:0812A9008F993099FDC29922D2
:10115500120A656010F5993099FDC299740129F953
:06116500E43AFA80EB22DF
:040F14008E338F3455
:100F1800E4F535F536C3E5369534E5359533502592
:100F2800E4F583F582AF82AE83E4FCFD7BFF7AFFB4
:100F3800F9F8D3120AE14003A380EA0536E53670D2
:050F4800D4053580D046
:010F4D002281
:10116B00BFD5C6F8CAAAB6C8002500BFD5C6F8CEEB
:06117B00C2B6C8004300EB
:0E12120000007F017EC27D9FDDFEDEFCDFFA64
:0112200022AB
:0C126700153015301530153015301530DD
:011273002258
:0312C000DFFE222C
:10119700AE07AF061EEF600C7FF51212C07FF51287
:0511A70012C080EE22E1
:100E5900E4FF750C02209207AE0C050CEE70F61239
:100E69001267121267121267E4F5113092037511B5
:100E790001750C02309207AE0C050CEE70F6E50C0C
:100E89006401600EE51925E0F519E51142190FBF56
:020E990008C08F
:010E9B002234
:100C7C00C2927F12121197D292121267121267123D
:100C8C001267121267D292209256750C02209207AC
:100C9C00AF0C050CEF70F6750C02309207AF0C051B
:100CAC000CEF70F6120E59851917120E598519187A
:100CBC00120E5985190A120E5985190B120E5985E7
:100CCC00190FD292E50A250B25172518F511B50F2A
:100CDC000F851714851815850A08850B09850F0DC6
:010CEC0022E5
:100C0100120C7CE51475F00A842430F510E5147596
:100C1100F00A84E5F02430F513E50875F00A842420
:100C210030F512E50875F00A84E5F02430F5167FF9
:100C31009012123E7BFF7A11796B12113F7F951250
:100C4100123EAF1012124CAF1312124C7BFF7A11ED
:100C5100797412113F7F8812123E7BFF7A117976E7
:100C610012113F7F8D12123EAF1212124CAF1612AB
:0B0C7100124C7BFF7A11797F02113FCB
:1011AC00AF121212A9AF161212A9AF101212A9AFD8
:0411BC00130212A95F
:09129700120E151211AC021181B6
:0312BC00013900F5
:1011080020951A7F037E00120FCA2095103095FD96
:0E1118000539121280E539B40203E4F53922DC
:0F122100E539146006047006020F4E1212A02267
:100F8600C5A9D2B5BBB7BEB3D0C5CFA200B2C9BC46
:100F9600AFBCECB2E2CFB5CDB300D7F7D5DFA3BA7D
:100FA600CEE2D0A1CDAC00D6B8B5BCC0CFCAA6A300
:080FB600BABBC6CEAAD3C200EB
:100F4E007F8112123E7BFF7A0F798612113F7F91BD
:100F5E0012123E7BFF7A0F799312113F7F88121285
:100F6E003E7BFF7A0F79A012113F7F9812123E7BC3
:080F7E00FF7A0F79AD02113F6B
:0912A000120CED120C01020D5CB0
:0B128C00CDC1C8C0CEC2B6C8004300F0
:10106400C200D2937F051212C0C2937FC81212C06D
:101074007FC81212C0D2937F321212C0A293920080
:071084007F191212C0A20047
:01108B002242
:10103B00E4F531F532753108C293E532C313F5325D
:10104B00D2933093034332807F191212C01531E5CE
:08105B0031D3940050E2AF32E2
:01106300226A
:020FE8008F3147
:100FEA00E4F532753208C293E5311392937F1912F0
:100FFA0012C0D293E531C313F5311532E532D394D9
:08100A000050E37F190212C03F
:100ED800E4F530FFFEFDFC1210647FCC120FE87FB2
:100EE80044120FE87F0A1211971210647FCC120F78
:100EF800E87FBE120FE812103B8F3012103BEF7FD5
:0B0F080000FEEF2530FDE43EFEAF05CB
:010F130022BB
:100D5C00120ED88E1C8F1DAC1CAD1DEC1209ABE411
:100D6C00FBFA7980783D1208001209E48E1A8F1B69
:100D7C007C007D0A120A7EEF2430F51EAE1AAF1BE2
:100D8C007C007D0A120A7EED2430F51F7F9812122A
:100D9C003E7BFF7A12798C12113F7F9D12123EAF6F
:100DAC001E12124CAF1F12124C7BFF7A1279950255
:020DBC00113FE5
:10118100AF1E1212A9AF1F1212A97F1A1212A97F44
:06119100057E00020F14B0
:10080000EC4D6011E8497017ED33EC3304600DE4F2
:10081000FCFFFEFD22E933E8330470F8020A5012AF
:100820000A1B58046009E4CC2481500628500902B0
:100830000A5A284003020A57C0E0EB4A7044B980C4
:1008400006D0E0FB020A46EF4E701CBD8008EBFFAD
:10085000EAFEE9FD80EBE98DF0A4FEE5F00208E98F
:10086000E9CDF9EAFEEBFFEF89F0A4FCE5F0CE89D3
:10087000F0A42EFFE435F0CD89F0A42DFEE435F090
:100880008067EF4E7005BD80D780C3EF8BF0A4ACBE
:10089000F0EE8BF0A42CFCE435F0F8EF8AF0A42CF9
:1008A000E5F038FCE433CB8DF0A42CFCE5F03BF80C
:1008B000EE8AF0A42CFCE5F038F8E433CF89F0A4FC
:1008C0002CFCE5F038CF3400CE89F0A42FFFE5F002
:1008D0003EFEE433C98DF0A42EFEE5F039CD8AF05A
:1008E000A42FFFE5F03EFEE43DFD33D0E0FB5007D2
:1008F0000BBB000F020A5AEC2CFCEF33FFEE33FE69
:06090000ED33FD020A3296
:10090600020A5AEC5D046005E859047003020A50B5
:10091600120A1B580460F6EC4860F2EC7004FDFE07
:10092600FF22C860DB2481C85009C39860025006C4
:10093600020A579850CAF582E9294B4A7005AB82DC
:10094600020A4675F0007C1A7880C3EF9BEE9AED9A
:1009560099400DC3EF9BFFEE9AFEED99FDE842F03C
:10096600DC23ACF0D0E0FFD0E0FED0E0FDAB82208F
:10097600E7101BEB60BAEC2CFCEF33FFEE33FEED19
:1009860033FD020A32E803F830E705C0F075F000DF
:10099600EF2FFFEE33FEED33FD40B830E7C280AAFD
:1009A60075F020800E75F010800575F0087D007ECC
:1009B600007F003392D530D503120AD3EC334010B2
:1009C600EF33FFEE33FEED33FDEC33FCD5F0ED22D5
:0E09D600E5F0247EA2D513CC92E7CDCEFF2211
:1009E400EDD2E7CD33EC3392D524814006E4FFFE0B
:1009F400FDFC22FCE4CFCECDCC24E0501174FF806A
:100A0400EDC3CC13CCCD13CDCE13CECF13CF047006
:070A1400F030D5DE020AD329
:100A1B00E9D2E7C933E833F892D5EDD2E7CD33EC21
:070A2B0033FC5002B2D5229A
:100A3200EC30E7100FBF000C0EBE00080DBD000425
:100A42000BEB6014A2D5EB13FCED92E7FD2274FFD1
:100A5200FCFDFEFF22E480F8A2D574FF13FC7D802A
:030A6200E480EF3E
:100B03000211E3E493A3F8E493A34003F68001F214
:100B130008DFF48029E493A3F85407240CC8C333F3
:100B2300C4540F4420C8834004F456800146F6DFC2
:100B3300E4800B01020408102040809012BCE47E84
:100B4300019360BCA3FF543F30E509541FFEE493B7
:100B5300A360010ECF54C025E060A840B8E493A37E
:100B6300FAE493A3F8E493A3C8C582C8CAC583CAA9
:100B7300F0A3C8C582C8CAC583CADFE9DEE780BE61
:0112BF00002E
:100A6500BB010689828A83E0225002E722BBFE028F
:090A7500E32289828A83E49322C2
:100A7E00BC000BBE0029EF8DF084FFADF022E4CC5C
:100A8E00F875F008EF2FFFEE33FEEC33FCEE9DEC25
:100A9E00984005FCEE9DFE0FD5F0E9E4CEFD22ED6B
:100AAE00F8F5F0EE8420D21CFEADF075F008EF2FB5
:100ABE00FFED33FD4007985006D5F0F222C398FDA6
:050ACE000FD5F0EA2243
:0E0AD300C3E49FFFE49EFEE49DFDE49CFC2234
:100AE100EB9FF5F0EA9E42F0E99D42F0EC6480C88C
:060AF10064809845F0222C
:00000001FF
